:020000040800F2
:1000000030210020A501000801070008F9060008BA
:10001000FD060008D3030008310C000800000000B2
:1000200000000000000000000000000009070008B8
:10003000A50500080000000005070008BD01000834
:10004000BF010008BF010008BF010008BF01000890
:10005000BF010008BF010008A90500082306000829
:100060002D0600083706000841060008190400089C
:100070002D04000841040008590400089D040008EC
:10008000B3040008C9040008BF010008BF0100084C
:1000900000000000BF010008000000004D0600083D
:1000A000BF01000895090008BF010008BF01000852
:1000B000A9090008BD090008D1090008BF0100080E
:1000C00000000000BF01000800000000BF010008A0
:1000D000BF010008350A0008710A0008AD0A0008CF
:1000E000B3050008BF010008BF010008BF010008F8
:1000F000210A0008BF010008BF010008BF01000875
:1001000000000000BF010008E5090008BF01000869
:10011000E90A0008250B0008F90900080D0A000883
:10012000E1040008F9040008110500082905000889
:1001300041050008BF0100080000000000000000A9
:10014000BF0100080000000000000000BF0100081F
:10015000000000000000000000000000590B000833
:10016000000000000000000000000000000000008F
:10017000000000000000000000000000000000007F
:100180000000000000000000950B0008D10B0008E3
:10019000DFF80CD000F0D8F800480047750D0008D3
:1001A000302100200648804706480047FEE7FEE76A
:1001B000FEE7FEE7FEE7FEE7FEE7FEE7FEE7FEE717
:1001C000310900089101000880EA010210B502F02F
:1001D0000043400022D04A001FD0010E01EB126103
:1001E000C0F35600C2F3560240F4000042F400028D
:1001F000A0FB022000047F39140400D0401C50EA08
:10020000124001D44000491EC2B20C0604EBD010CB
:10021000401C4008802A02D003E0002010BD20F0DE
:100220000100002900DA0020184310BD30B480EA34
:10023000010202F0004530F0004221F0004013D0EE
:1002400090B1C30DD40DC2F31601C0F31600E41A29
:1002500041F4000140F400027D34914201D3641C5A
:1002600000E04900002C02DA30BC002070474FF457
:1002700000000023914201D3891A034340084FEA4A
:100280004101F7D151B1914202D14FF0004105E057
:1002900002D24FF0010101E06FF0010103EBC45005
:1002A000284430BC00F019B896230022114600F013
:1002B0001DB820F00040C10DC0F3160040F400004E
:1002C0007F2901DA00207047962903DCC1F19601ED
:1002D000C84070479639884070470029A8BF7047CA
:1002E000401C490008BF20F00100704710B4B0FA6C
:1002F00080FC00FA0CF050EA010404BF10BC704707
:1003000049B1CCF1200421FA04F411FA0CF118BF20
:10031000012121430843A3EB0C01CB1D4FEA0061EF
:100320004FEA102042BF002010BC704700EBC350C2
:1003300010440029A4BF10BC7047401C490008BFEE
:1003400020F0010010BC7047064C074D06E0E06845
:1003500040F0010394E8070098471034AC42F6D30C
:10036000FFF71AFF2C1400084C1400082DE9F04385
:10037000054616461F4608464FF0000C002423E0B1
:10038000002319E003F1010805FB08F804F1010955
:10039000B8FBF9F28A4202D9A2EB010801E0A1EB15
:1003A00002084246904202D9104633703C7010B9A0
:1003B0004FF0010C02E05B1C402BE3D300BFBCF10B
:1003C000000F00D002E0641C042CD9D300BFBDE8AC
:1003D000F08300BFFEE7014600224FF0E0231A61E0
:1003E000CA005A6100229A6105221A6100BF4FF0CB
:1003F000E022106900F001021AB100F48032002AF4
:10040000F5D04FF0E022126922F001024FF0E02314
:100410001A6100229A61704710B5022000F0AAF814
:10042000012802D1022000F097F810BD10B520205D
:1004300000F0A0F8012802D1202000F08DF810BDB6
:1004400010B54FF4007000F095F8012802D1400279
:1004500000F082F810BD000010B54FF4005000F01D
:1004600089F8012816D1400300F076F80A48007890
:10047000012804D0022805D0032809D105E000F0A6
:100480000DFD06E000F01AFD03E000F097FC00E02F
:1004900000BF00BF10BD00000400002010B54FF4E5
:1004A000003000F067F8012802D1400400F054F851
:1004B00010BD10B54FF4001000F05CF8012802D117
:1004C000400500F049F810BD10B54FF0007000F085
:1004D00051F8012802D1400600F03EF810BD00009E
:1004E00010B5044800F046F8012802D1014800F098
:1004F00033F810BD0200001010B5044800F03AF8BF
:10050000012802D1014800F027F810BD200000109A
:1005100010B5044800F02EF8012802D1014800F07F
:100520001BF810BD0002001010B5044800F022F8BE
:10053000012802D1014800F00FF810BD0020001082
:1005400010B5044800F016F8012802D1014800F067
:1005500003F810BD00000210B0F1805F02D903491A
:10056000086070470249486000BFFAE7040402408F
:10057000000002400146B1F1805F07D907480068DA
:10058000084008B1012070470020FCE704480068DB
:10059000084008B10120F6E70020F4E7000402401B
:1005A0000000024000BFFEE710B5012000F08EF809
:1005B00010BD10B54FF4806000F08EF818B14FF404
:1005C000806000F083F84FF4006000F085F818B107
:1005D0004FF4006000F07AF84FF4805000F07CF89F
:1005E00018B14FF4805000F071F84FF4005000F053
:1005F00073F818B14FF4005000F068F84FF48040E1
:1006000000F06AF818B14FF4804000F05FF84FF442
:10061000004000F061F818B14FF4004000F056F8C7
:1006200010BD10B5022000F051F810BD10B5042027
:1006300000F04CF810BD10B5082000F047F810BDD0
:1006400010B5102000F042F810BD000010B52020B9
:1006500000F042F810B1202000F038F8402000F0FF
:100660003BF810B1402000F031F8802000F034F861
:1006700010B1802000F02AF84FF4807000F02CF8C0
:10068000B8B111480078012804D0022805D0032809
:1006900009D105E000F02EFC06E000F01FFC03E0AD
:1006A00000F0C6FB00E000BF00BF4FF4807000F018
:1006B0000DF84FF4007000F00FF818B14FF400700F
:1006C00000F004F810BD000004000020014908609B
:1006D00070470000140401400146064800680840C5
:1006E00030B1044814380068084008B10120704750
:1006F0000020FCE71404014000BFFEE700BFFEE756
:1007000000BFFEE700BFFEE700BFFEE710B50A48E6
:10071000006820F01800084908600846006840F0AA
:100720000100086000BF0448406800F00300022890
:10073000F9D100F003F810BD0060014000B587B0AA
:100740000020039002907148006840F001006F495A
:10075000086000BF6D48006800F002000028F9D072
:100760006A48006840F48030684908600520FFF757
:1007700032FE674800686749884210D96348006BB9
:1007800040F08050614908636348006820F44040AD
:10079000614908600846006840F44040086010E085
:1007A0005A48006800F400300290029800B109E055
:1007B0000398401C03900398B0F5485F01D307B03D
:1007C00000BDEDE700BF5148006800F4003010B9EB
:1007D00000200290F3E7012002900520FFF7FBFDC7
:1007E0004E484B4908604E48006840F010004C49A4
:1007F00008600846006820F0070008604448006868
:10080000401E4849B0FBF1F0069045480068069943
:1008100001F007010843424908603C48406843F63C
:10082000F071884339494860084640684860084686
:10083000406848600846406848606B4601AA3448F2
:1008400001683948FFF792FD3048806C20F00300C2
:100850002E4988640846806C40F0010088649DF849
:10086000000000F0070004909DF8040000F07F00F5
:1008700005900846006B40F0805008630846806C85
:100880002A4908402149886405980004049940EAEF
:1008900001201E49896C08431C4988640846006889
:1008A00040F08070086000E000BF1848006800F069
:1008B00000700028F8D01548406820F00300134964
:1008C00048600846406840F00200486000E000BF11
:1008D0000E48406800F00C000828F8D10120FFF70E
:1008E0007AFD0A48406820F010000849486001205D
:1008F000FFF771FD0548406820F08000034948601B
:100900000120FFF768FD00BF59E70000001002401A
:100910000C00002000D8B80500700040000E27072A
:100920000020024000366E0100127A00FFF880FFBE
:1009300010B51448006840F00100124908600846EC
:100940004068114908400F494860084600680F494F
:1009500008400C4908600846006820F480200860C0
:100960000846406820F4430048600846006808498B
:100970000840044908604FF41F008860FFF7C6FE76
:1009800010BD0000001002400CC0FFF8FFFFF6FE93
:10099000FFFF8F000349086809688143014A11601D
:1009A00070470000102C01404FF080410869096930
:1009B00081434FF08042116170470000034908688D
:1009C00009688143014A116070470000100400402B
:1009D0000349086809688143014A116070470000B3
:1009E000100800400349086809688143014A116002
:1009F00070470000100C00400349086909698143F1
:100A0000014A116170470000001000400349086866
:100A100009688143014A11607047000010140040CA
:100A20000349086809688143014A11607047000062
:100A3000103401400D48006800F0010038B10B4847
:100A40000830006840F00100084908310860074894
:100A5000006800F0020038B104480830006840F037
:100A60000200024908310860704700000C3801405C
:100A70000D48006800F0010038B10B4808300068EC
:100A800040F001000849083108600748006800F09C
:100A9000020038B104480830006840F00200024902
:100AA00008310860704700000C4400400D480068A1
:100AB00000F0010038B10B480830006840F0010038
:100AC0000849083108600748006800F0020038B1A2
:100AD00004480830006840F002000249083108600C
:100AE000704700000C4800400D48006800F001000D
:100AF00038B10B480830006840F00100084908315F
:100B000008600748006800F0020038B10448083067
:100B1000006840F002000249083108607047000098
:100B20000C4C00400B48C06800F0010028B1094897
:100B3000406940F00100074948610648C06800F07C
:100B4000020028B10348406940F0020001494861B1
:100B500070470000005000400D48006800F00100A0
:100B600038B10B480830006840F0010008490831EE
:100B700008600748006800F0020038B104480830F7
:100B8000006840F002000249083108607047000028
:100B90000C3C01400D48006800F0010038B10B48E2
:100BA0000830006840F00100084908310860074833
:100BB000006800F0020038B104480830006840F0D6
:100BC0000200024908310860704700000C780040BC
:100BD00010B51548006800F0010038B1124808301F
:100BE000006840F001001049083108600E480068B4
:100BF00000F00200B0B10C480830006840F002007C
:100C000009490831086009480078022802D0032801
:100C100006D102E000F018F903E000F0DFF800E090
:100C200000BF00BF10BD00000C7C0040040000208D
:100C300000BFFEE702E008C8121F08C1002AFAD16F
:100C400070477047002001E001C1121F002AFBD14C
:100C500070470000F0B504460D461646210904F021
:100C60000F02334FBF6A4FF0010C0CFA01FC47EA48
:100C70000C07DFF8BCC0CCF82870082A27DA2D4F03
:100C800057F82170386A4FEA820C0F2707FA0CF7E1
:100C9000B843970006FA07F73843264F57F82170F4
:100CA0003862244F57F8217038684FEA820C0F27BA
:100CB00007FA0CF7B84345EA03074FEA820C07FA34
:100CC0000CF738431B4F57F8217038602EE0194F4E
:100CD00057F82170786AA2F108074FEA870C0F27AE
:100CE00007FA0CF7B843A2F10807BF0006FA07F7A6
:100CF0003843104F57F8217078620E4F57F8217023
:100D00007868A2F108074FEA870C0F2707FA0CF75B
:100D1000B84345EA0307A2F1080C4FEA8C0C07FA26
:100D20000CF73843034F57F821707860F0BD00008E
:100D3000001002402000002010B5044604200246A6
:100D40000A4B19684FF6FF031940094B0B4343EA5E
:100D50000221064B196000BF3CB140F20A735A1ED3
:100D60004FF4E131002000F085FA10BD0CED00E0F9
:100D70000000FA050120FFF7DFFF002342F21072A6
:100D80004FF49051332000F019F913E00A4802881B
:100D90000088401C084B18804FF49051332000F01D
:100DA000B5F80548008846F2A811884202DB002009
:100DB00001490880EAE70000000000200548406C77
:100DC0004FF6FE710840034948640120024908704B
:100DD00070470000000002408C0000201048C069ED
:100DE00040681049104A127888540F480078401C17
:100DF0000D49087008460078012805D10948007897
:100E0000A52801D00020087007480078032805D1E4
:100E1000002005490870012004490870704700004F
:100E2000600000208D000020900000209100002034
:100E300045F62000034988640846406C40F00100F4
:100E400048647047000002401048C069406810497B
:100E5000104A127888540F480078401C0D490870D9
:100E600008460078012805D109480078A52801D056
:100E70000020087007480078032805D100200549A4
:100E800008700120044908707047000060000020CD
:100E90000401002007010020080100200548406CE3
:100EA0004FF6FE710840034948640120024908706A
:100EB0007047000000000240880000200548406C98
:100EC0004FF6FE710840034948640120024908704A
:100ED0007047000000000240D60000204FF416606A
:100EE000034988640846406C40F00100486470473C
:100EF000000002404FF41660034988640846406CC5
:100F000040F0010048647047000002402DE9F84FAE
:100F100004460F4616464CF25030864201D9BDE8D1
:100F2000F88F04F00F00234951F82000C06A1FFA1F
:100F300080F83046FFF7B8F983461F49FFF776F986
:100F400082464046FFF7B0F951460090FFF73CF962
:100F50008146FFF7AEF985B207F47040B0F5805FC7
:100F600009D0B0F5005F0DD0B0F5405F11D0B0F5FD
:100F7000804F1CD114E004F00F000E4951F82000FE
:100F8000456314E004F00F000A4951F8200085631E
:100F90000DE004F00F00074951F82000C56306E09A
:100FA00004F00F00034951F82000056400BF00BFA2
:100FB00000BFB4E740000020005043472DE9FE4F3A
:100FC00004460E46174698464CF25030804501D9EB
:100FD000BDE8FE8F9D480068B0FBF7F0C0F3CF3945
:100FE0009A480068B0FBF7F109F10100B1FBF0F09D
:100FF0001FFA80FA4046FFF757F995490090FFF72E
:1010000015F902905046FFF74FF901900299FFF74A
:10101000DBF88346FFF74DF985B2304600F020F942
:1010200004F4704040B18B48C06A2209012191400C
:1010300008438849C86207E08648006B22090121FD
:10104000914008438349086304F00F00824951F836
:101050002000C0F82CA004F00F0051F82000C0F8C8
:101060002890802004F00F017B4A52F8211008607C
:10107000000204F00F0152F82110486406F4704099
:10108000B0F5805F09D0B0F5005F35D0B0F5405FB6
:1010900061D0B0F5804F2ED18CE004F00F006E4986
:1010A00051F82000806940F0600004F00F016A4AA6
:1010B00052F82110886104F00F00114651F8200009
:1010C000806940F0080004F00F0152F82110886197
:1010D00004F00F00114651F82000006A40F00100B2
:1010E00004F00F0152F82110086204F00F001146BD
:1010F00051F8200045638CE004F00F00564951F888
:101100002000806940F4C04004F00F01524A52F8B8
:101110002110886104F00F00114651F82000806909
:1011200040F4006004F00F0152F82110886104F0CF
:101130000F00114651F82000006A40F0100004F042
:101140000F0152F82110086204F00F00114651F807
:10115000200085635DE004F00F003F4951F8200056
:10116000C06940F0600004F00F013B4A52F82110C2
:10117000C86104F00F00114651F82000C06940F02A
:10118000080004F00F0152F82110C86104F00F00AC
:10119000114651F82000006A40F4807004F00F01FD
:1011A00052F82110086204F00F00114651F8200097
:1011B000C5632EE004F00F00274951F82000C069F4
:1011C00040F4C04004F00F01234A52F82110C861D6
:1011D00004F00F00114651F82000C06940F400608F
:1011E00004F00F0152F82110C86104F00F001146FD
:1011F00051F82000006A40F4805004F00F0152F8CA
:101200002110086204F00F00114651F82000056417
:1012100000BF00BF04F00F000F4951F82000006A22
:1012200004F00F010D4A42F8210004F00F000A49B2
:1012300051F82000006840F0010004F00F01064A58
:1012400052F82110086000BFC2E600000C00002028
:101250000050434700100240400000200C010020D5
:1012600010B50446E0B20823C4F303220321FFF7BC
:10127000F1FC10BD2DE9F04104460D4616461F460F
:101280003946304600F0C0F8082C15D2DFE804F0EB
:101290000415263748596A7B5848C06A40F0100048
:1012A0005649C8620846806940F0100088610846C7
:1012B000806920F01000886176E05048006B40F4AF
:1012C00000304E4908630846C06940F40030C861E8
:1012D0000846C06920F40030C86165E04748006BEB
:1012E00040F48020454908630846C06940F48020E6
:1012F000C8610846C06920F48020C86154E03F48B6
:10130000006B40F400203D4908630846C06940F482
:101310000020C8610846C06920F40020C86143E08D
:101320003648006B40F48010344908630846C069B1
:1013300040F48010C8610846C06920F48010C8617C
:1013400032E02E48C06A40F020002C49C8620846AE
:10135000806940F0200088610846806920F0200004
:10136000886121E02548006B40F0804023490863F4
:101370000846C06940F08040C8610846C06920F056
:101380008040C86110E01D48006B40F000401B49E0
:1013900008630846C06940F00040C8610846C0695B
:1013A00020F00040C86100BF00BF15480068B0FBD6
:1013B000F5F00009134951F824100862104800683C
:1013C000B0FBF5F000F00F000E4951F82410486210
:1013D0000C4850F82400C06940F03000094951F829
:1013E0002410C861074850F82400806940F01900B3
:1013F000044951F824108861BDE8F08100100240D2
:101400000C0000206000002070B504460D46E0B2DC
:101410000823C4F303220321FFF71CFCE8B20423D2
:10142000C5F303220021FFF715FC70BD4C14000822
:10143000000000200C010000340C000858150008C2
:101440000C01002024200000440C000800000000D3
:101450000000000000000000000E27070000000050
:101460000000000001020304060708090000044010
:101470000004044000080440000C04400010044034
:101480000014044000180440001C0440002C0140DB
:101490000034014000000040000C00400004004007
:1014A00000080040001000400014004000380140D7
:1014B0000044004000480040004C00400050004004
:1014C000003C014000780040007C00402526273485
:1014D000354752530000C800000000000000010022
:1014E00000000200C201030032000400BC0005003D
:1014F000780006000000070000000800200000003F
:1015000000000100000002000000030000000400D1
:1015100000000500000006000000070000000800B1
:101520000000000001000000020030000300320053
:101530000400A00005007800000000000100000089
:10154000020000000300000004000000050000008D
:08155000000000000000000093
:04000005080001915D
:00000001FF
